{
  "contractName": "Adoption",
  "abi": [
    {
      "anonymous": false,
      "inputs": [
        {
          "indexed": true,
          "internalType": "address",
          "name": "sender",
          "type": "address"
        },
        {
          "indexed": false,
          "internalType": "uint256",
          "name": "message",
          "type": "uint256"
        }
      ],
      "name": "Log",
      "type": "event"
    },
    {
      "inputs": [
        {
          "internalType": "uint256",
          "name": "",
          "type": "uint256"
        }
      ],
      "name": "adopters",
      "outputs": [
        {
          "internalType": "address",
          "name": "",
          "type": "address"
        }
      ],
      "stateMutability": "view",
      "type": "function"
    },
    {
      "inputs": [
        {
          "internalType": "uint256",
          "name": "petId",
          "type": "uint256"
        }
      ],
      "name": "adopt",
      "outputs": [
        {
          "internalType": "uint256",
          "name": "",
          "type": "uint256"
        }
      ],
      "stateMutability": "nonpayable",
      "type": "function"
    },
    {
      "inputs": [],
      "name": "getAdopters",
      "outputs": [
        {
          "internalType": "address[16]",
          "name": "",
          "type": "address[16]"
        }
      ],
      "stateMutability": "view",
      "type": "function"
    }
  ],
  "bytecode": "0x608060405234801561001057600080fd5b50610464806100206000396000f3fe608060405234801561001057600080fd5b50600436106100415760003560e01c80633de4eb171461004657806343ae80d3146100645780638588b2c514610094575b600080fd5b61004e6100c4565b60405161005b9190610327565b60405180910390f35b61007e6004803603810190610079919061037e565b610145565b60405161008b91906103ba565b60405180910390f35b6100ae60048036038101906100a9919061037e565b61017b565b6040516100bb91906103e4565b60405180910390f35b6100cc610227565b600060108060200260405190810160405280929190826010801561013b576020028201915b8160009054906101000a900473ffffffffffffffffffffffffffffffffffffffff1673ffffffffffffffffffffffffffffffffffffffff16815260200190600101908083116100f1575b5050505050905090565b6000816010811061015557600080fd5b016000915054906101000a900473ffffffffffffffffffffffffffffffffffffffff1681565b60003373ffffffffffffffffffffffffffffffffffffffff167ff950957d2407bed19dc99b718b46b4ce6090c05589006dfb86fd22c34865b23e836040516101c391906103e4565b60405180910390a233600083601081106101e0576101df6103ff565b5b0160006101000a81548173ffffffffffffffffffffffffffffffffffffffff021916908373ffffffffffffffffffffffffffffffffffffffff160217905550819050919050565b604051806102000160405280601090602082028036833780820191505090505090565b600060109050919050565b600081905092915050565b6000819050919050565b600073ffffffffffffffffffffffffffffffffffffffff82169050919050565b60006102958261026a565b9050919050565b6102a58161028a565b82525050565b60006102b7838361029c565b60208301905092915050565b6000602082019050919050565b6102d98161024a565b6102e38184610255565b92506102ee82610260565b8060005b8381101561031f57815161030687826102ab565b9650610311836102c3565b9250506001810190506102f2565b505050505050565b60006102008201905061033d60008301846102d0565b92915050565b600080fd5b6000819050919050565b61035b81610348565b811461036657600080fd5b50565b60008135905061037881610352565b92915050565b60006020828403121561039457610393610343565b5b60006103a284828501610369565b91505092915050565b6103b48161028a565b82525050565b60006020820190506103cf60008301846103ab565b92915050565b6103de81610348565b82525050565b60006020820190506103f960008301846103d5565b92915050565b7f4e487b7100000000000000000000000000000000000000000000000000000000600052603260045260246000fdfea264697066735822122068cbdcef5810ee6f0f1db8ab4f3baf0c1925f70db3d5bbe90beff19ff80e9af064736f6c634300080d0033",
  "immutableReferences": {},
  "source": "// SPDX-License-Identifier: MIT\npragma solidity >=0.5.0 <0.9.0;\n\ncontract Adoption {\n  address[16] public adopters;\n\n  event Log(address indexed sender, uint256 message);\n\n  function adopt(uint256 petId) public returns (uint256) {\n    // require(petId >= 0 && petId <= 15);\n    emit Log(msg.sender, petId);\n    adopters[petId] = msg.sender;\n\n    return petId;\n  }\n\n  function getAdopters() public view returns (address[16] memory) {\n    return adopters;\n  }\n}\n",
  "sourcePath": "D:\\PROJECT\\pet-shop-react\\contracts\\Adoption.sol",
  "compiler": {
    "name": "solc",
    "version": "0.8.13+commit.abaa5c0e.Emscripten.clang"
  },
  "schemaVersion": "3.4.6",
  "updatedAt": "2022-04-05T13:25:46.265Z",
  "devdoc": {
    "kind": "dev",
    "methods": {},
    "version": 1
  },
  "userdoc": {
    "kind": "user",
    "methods": {},
    "version": 1
  }
}