{
  "contractName": "PotatoMarket",
  "abi": [
    {
      "inputs": [],
      "stateMutability": "nonpayable",
      "type": "constructor"
    },
    {
      "anonymous": false,
      "inputs": [
        {
          "indexed": true,
          "internalType": "uint256",
          "name": "itemId",
          "type": "uint256"
        },
        {
          "indexed": true,
          "internalType": "address",
          "name": "nftContract",
          "type": "address"
        },
        {
          "indexed": true,
          "internalType": "uint256",
          "name": "tokenId",
          "type": "uint256"
        },
        {
          "indexed": false,
          "internalType": "address",
          "name": "seller",
          "type": "address"
        },
        {
          "indexed": false,
          "internalType": "address",
          "name": "owner",
          "type": "address"
        },
        {
          "indexed": false,
          "internalType": "uint256",
          "name": "price",
          "type": "uint256"
        },
        {
          "indexed": false,
          "internalType": "bool",
          "name": "sold",
          "type": "bool"
        }
      ],
      "name": "MarketTokenMinted",
      "type": "event"
    },
    {
      "inputs": [],
      "name": "getListingPrice",
      "outputs": [
        {
          "internalType": "uint256",
          "name": "",
          "type": "uint256"
        }
      ],
      "stateMutability": "view",
      "type": "function",
      "constant": true
    },
    {
      "inputs": [
        {
          "internalType": "address",
          "name": "nftContract",
          "type": "address"
        },
        {
          "internalType": "uint256",
          "name": "tokenId",
          "type": "uint256"
        },
        {
          "internalType": "uint256",
          "name": "price",
          "type": "uint256"
        }
      ],
      "name": "mintMarketItem",
      "outputs": [],
      "stateMutability": "payable",
      "type": "function",
      "payable": true
    },
    {
      "inputs": [
        {
          "internalType": "address",
          "name": "nftContract",
          "type": "address"
        },
        {
          "internalType": "uint256",
          "name": "itemId",
          "type": "uint256"
        }
      ],
      "name": "createMarketSale",
      "outputs": [],
      "stateMutability": "payable",
      "type": "function",
      "payable": true
    },
    {
      "inputs": [],
      "name": "fetchMarketItem",
      "outputs": [
        {
          "components": [
            {
              "internalType": "uint256",
              "name": "itemId",
              "type": "uint256"
            },
            {
              "internalType": "address",
              "name": "nftContract",
              "type": "address"
            },
            {
              "internalType": "uint256",
              "name": "tokenId",
              "type": "uint256"
            },
            {
              "internalType": "address payable",
              "name": "seller",
              "type": "address"
            },
            {
              "internalType": "address payable",
              "name": "owner",
              "type": "address"
            },
            {
              "internalType": "uint256",
              "name": "price",
              "type": "uint256"
            },
            {
              "internalType": "bool",
              "name": "sold",
              "type": "bool"
            }
          ],
          "internalType": "struct PotatoMarket.MarketToken[]",
          "name": "",
          "type": "tuple[]"
        }
      ],
      "stateMutability": "view",
      "type": "function",
      "constant": true
    },
    {
      "inputs": [],
      "name": "fetchMyNfts",
      "outputs": [
        {
          "components": [
            {
              "internalType": "uint256",
              "name": "itemId",
              "type": "uint256"
            },
            {
              "internalType": "address",
              "name": "nftContract",
              "type": "address"
            },
            {
              "internalType": "uint256",
              "name": "tokenId",
              "type": "uint256"
            },
            {
              "internalType": "address payable",
              "name": "seller",
              "type": "address"
            },
            {
              "internalType": "address payable",
              "name": "owner",
              "type": "address"
            },
            {
              "internalType": "uint256",
              "name": "price",
              "type": "uint256"
            },
            {
              "internalType": "bool",
              "name": "sold",
              "type": "bool"
            }
          ],
          "internalType": "struct PotatoMarket.MarketToken[]",
          "name": "",
          "type": "tuple[]"
        }
      ],
      "stateMutability": "view",
      "type": "function",
      "constant": true
    },
    {
      "inputs": [],
      "name": "fetchItemCreated",
      "outputs": [
        {
          "components": [
            {
              "internalType": "uint256",
              "name": "itemId",
              "type": "uint256"
            },
            {
              "internalType": "address",
              "name": "nftContract",
              "type": "address"
            },
            {
              "internalType": "uint256",
              "name": "tokenId",
              "type": "uint256"
            },
            {
              "internalType": "address payable",
              "name": "seller",
              "type": "address"
            },
            {
              "internalType": "address payable",
              "name": "owner",
              "type": "address"
            },
            {
              "internalType": "uint256",
              "name": "price",
              "type": "uint256"
            },
            {
              "internalType": "bool",
              "name": "sold",
              "type": "bool"
            }
          ],
          "internalType": "struct PotatoMarket.MarketToken[]",
          "name": "",
          "type": "tuple[]"
        }
      ],
      "stateMutability": "view",
      "type": "function",
      "constant": true
    }
  ],
  "bytecode": "0x6080604052669fdf42f6e4800060045534801561001b57600080fd5b50600160008190555033600360006101000a81548173ffffffffffffffffffffffffffffffffffffffff021916908373ffffffffffffffffffffffffffffffffffffffff1602179055506118e0806100746000396000f3fe6080604052600436106100555760003560e01c8063128ae7121461005a57806312e85585146100855780635538f194146100b05780636d360339146100cc5780638fafd021146100f7578063c23b139e14610122575b600080fd5b34801561006657600080fd5b5061006f61013e565b60405161007c9190611368565b60405180910390f35b34801561009157600080fd5b5061009a6104a0565b6040516100a79190611399565b60405180910390f35b6100ca60048036038101906100c59190611411565b6104aa565b005b3480156100d857600080fd5b506100e161080d565b6040516100ee9190611368565b60405180910390f35b34801561010357600080fd5b5061010c610b6f565b6040516101199190611368565b60405180910390f35b61013c60048036038101906101379190611464565b610e38565b005b6060600061014c60016110f0565b905060008060005b838110156101f4573373ffffffffffffffffffffffffffffffffffffffff166005600060018461018491906114d3565b815260200190815260200160002060040160009054906101000a900473ffffffffffffffffffffffffffffffffffffffff1673ffffffffffffffffffffffffffffffffffffffff16036101e1576001836101de91906114d3565b92505b80806101ec90611529565b915050610154565b5060008267ffffffffffffffff81111561021157610210611571565b5b60405190808252806020026020018201604052801561024a57816020015b610237611114565b81526020019060019003908161022f5790505b50905060005b84811015610495573373ffffffffffffffffffffffffffffffffffffffff166005600060018461028091906114d3565b815260200190815260200160002060040160009054906101000a900473ffffffffffffffffffffffffffffffffffffffff1673ffffffffffffffffffffffffffffffffffffffff1603610482576000600560006001846102e091906114d3565b81526020019081526020016000206000015490506000600560008381526020019081526020016000209050806040518060e0016040529081600082015481526020016001820160009054906101000a900473ffffffffffffffffffffffffffffffffffffffff1673ffffffffffffffffffffffffffffffffffffffff1673ffffffffffffffffffffffffffffffffffffffff168152602001600282015481526020016003820160009054906101000a900473ffffffffffffffffffffffffffffffffffffffff1673ffffffffffffffffffffffffffffffffffffffff1673ffffffffffffffffffffffffffffffffffffffff1681526020016004820160009054906101000a900473ffffffffffffffffffffffffffffffffffffffff1673ffffffffffffffffffffffffffffffffffffffff1673ffffffffffffffffffffffffffffffffffffffff168152602001600582015481526020016006820160009054906101000a900460ff161515151581525050848681518110610465576104646115a0565b5b602002602001018190525060018561047d91906114d3565b945050505b808061048d90611529565b915050610250565b508094505050505090565b6000600454905090565b6002600054036104ef576040517f08c379a00000000000000000000000000000000000000000000000000000000081526004016104e69061162c565b60405180910390fd5b60026000819055506000811161053a576040517f08c379a000000000000000000000000000000000000000000000000000000000815260040161053190611698565b60405180910390fd5b600454341461057e576040517f08c379a00000000000000000000000000000000000000000000000000000000081526004016105759061172a565b60405180910390fd5b61058860016110fe565b600061059460016110f0565b90506040518060e001604052808281526020018573ffffffffffffffffffffffffffffffffffffffff1681526020018481526020013373ffffffffffffffffffffffffffffffffffffffff168152602001600073ffffffffffffffffffffffffffffffffffffffff16815260200183815260200160001515815250600560008381526020019081526020016000206000820151816000015560208201518160010160006101000a81548173ffffffffffffffffffffffffffffffffffffffff021916908373ffffffffffffffffffffffffffffffffffffffff1602179055506040820151816002015560608201518160030160006101000a81548173ffffffffffffffffffffffffffffffffffffffff021916908373ffffffffffffffffffffffffffffffffffffffff16021790555060808201518160040160006101000a81548173ffffffffffffffffffffffffffffffffffffffff021916908373ffffffffffffffffffffffffffffffffffffffff16021790555060a0820151816005015560c08201518160060160006101000a81548160ff0219169083151502179055509050508373ffffffffffffffffffffffffffffffffffffffff166323b872dd3330866040518463ffffffff1660e01b815260040161077593929190611759565b600060405180830381600087803b15801561078f57600080fd5b505af11580156107a3573d6000803e3d6000fd5b50505050828473ffffffffffffffffffffffffffffffffffffffff16827fcd9b0dfebab7db4dbe70606f69fadc8e987e7c80a65410f0bb5ae8bd72dabba73360008760006040516107f7949392919061179f565b60405180910390a4506001600081905550505050565b6060600061081b60016110f0565b905060008060005b838110156108c3573373ffffffffffffffffffffffffffffffffffffffff166005600060018461085391906114d3565b815260200190815260200160002060030160009054906101000a900473ffffffffffffffffffffffffffffffffffffffff1673ffffffffffffffffffffffffffffffffffffffff16036108b0576001836108ad91906114d3565b92505b80806108bb90611529565b915050610823565b5060008267ffffffffffffffff8111156108e0576108df611571565b5b60405190808252806020026020018201604052801561091957816020015b610906611114565b8152602001906001900390816108fe5790505b50905060005b84811015610b64573373ffffffffffffffffffffffffffffffffffffffff166005600060018461094f91906114d3565b815260200190815260200160002060030160009054906101000a900473ffffffffffffffffffffffffffffffffffffffff1673ffffffffffffffffffffffffffffffffffffffff1603610b51576000600560006001846109af91906114d3565b81526020019081526020016000206000015490506000600560008381526020019081526020016000209050806040518060e0016040529081600082015481526020016001820160009054906101000a900473ffffffffffffffffffffffffffffffffffffffff1673ffffffffffffffffffffffffffffffffffffffff1673ffffffffffffffffffffffffffffffffffffffff168152602001600282015481526020016003820160009054906101000a900473ffffffffffffffffffffffffffffffffffffffff1673ffffffffffffffffffffffffffffffffffffffff1673ffffffffffffffffffffffffffffffffffffffff1681526020016004820160009054906101000a900473ffffffffffffffffffffffffffffffffffffffff1673ffffffffffffffffffffffffffffffffffffffff1673ffffffffffffffffffffffffffffffffffffffff168152602001600582015481526020016006820160009054906101000a900460ff161515151581525050848681518110610b3457610b336115a0565b5b6020026020010181905250600185610b4c91906114d3565b945050505b8080610b5c90611529565b91505061091f565b508094505050505090565b60606000610b7d60016110f0565b90506000610b8b60026110f0565b610b9560016110f0565b610b9f91906117e4565b90506000808267ffffffffffffffff811115610bbe57610bbd611571565b5b604051908082528060200260200182016040528015610bf757816020015b610be4611114565b815260200190600190039081610bdc5790505b50905060005b84811015610e2d57600073ffffffffffffffffffffffffffffffffffffffff1660056000600184610c2e91906114d3565b815260200190815260200160002060040160009054906101000a900473ffffffffffffffffffffffffffffffffffffffff1673ffffffffffffffffffffffffffffffffffffffff1603610e1a576000600182610c8a91906114d3565b90506000600560008381526020019081526020016000209050806040518060e0016040529081600082015481526020016001820160009054906101000a900473ffffffffffffffffffffffffffffffffffffffff1673ffffffffffffffffffffffffffffffffffffffff1673ffffffffffffffffffffffffffffffffffffffff168152602001600282015481526020016003820160009054906101000a900473ffffffffffffffffffffffffffffffffffffffff1673ffffffffffffffffffffffffffffffffffffffff1673ffffffffffffffffffffffffffffffffffffffff1681526020016004820160009054906101000a900473ffffffffffffffffffffffffffffffffffffffff1673ffffffffffffffffffffffffffffffffffffffff1673ffffffffffffffffffffffffffffffffffffffff168152602001600582015481526020016006820160009054906101000a900460ff161515151581525050848681518110610dfd57610dfc6115a0565b5b6020026020010181905250600185610e1591906114d3565b945050505b8080610e2590611529565b915050610bfd565b508094505050505090565b600260005403610e7d576040517f08c379a0000000000000000000000000000000000000000000000000000000008152600401610e749061162c565b60405180910390fd5b6002600081905550600060056000838152602001908152602001600020600501549050600060056000848152602001908152602001600020600201549050813414610efd576040517f08c379a0000000000000000000000000000000000000000000000000000000008152600401610ef49061188a565b60405180910390fd5b6005600084815260200190815260200160002060030160009054906101000a900473ffffffffffffffffffffffffffffffffffffffff1673ffffffffffffffffffffffffffffffffffffffff166108fc349081150290604051600060405180830381858888f19350505050158015610f79573d6000803e3d6000fd5b508373ffffffffffffffffffffffffffffffffffffffff166323b872dd3033846040518463ffffffff1660e01b8152600401610fb793929190611759565b600060405180830381600087803b158015610fd157600080fd5b505af1158015610fe5573d6000803e3d6000fd5b50505050336005600085815260200190815260200160002060040160006101000a81548173ffffffffffffffffffffffffffffffffffffffff021916908373ffffffffffffffffffffffffffffffffffffffff16021790555060016005600085815260200190815260200160002060060160006101000a81548160ff02191690831515021790555061107760026110fe565b600360009054906101000a900473ffffffffffffffffffffffffffffffffffffffff1673ffffffffffffffffffffffffffffffffffffffff166108fc6004549081150290604051600060405180830381858888f193505050501580156110e1573d6000803e3d6000fd5b50505060016000819055505050565b600081600001549050919050565b6001816000016000828254019250508190555050565b6040518060e0016040528060008152602001600073ffffffffffffffffffffffffffffffffffffffff16815260200160008152602001600073ffffffffffffffffffffffffffffffffffffffff168152602001600073ffffffffffffffffffffffffffffffffffffffff168152602001600081526020016000151581525090565b600081519050919050565b600082825260208201905092915050565b6000819050602082019050919050565b6000819050919050565b6111d4816111c1565b82525050565b600073ffffffffffffffffffffffffffffffffffffffff82169050919050565b6000611205826111da565b9050919050565b611215816111fa565b82525050565b6000611226826111da565b9050919050565b6112368161121b565b82525050565b60008115159050919050565b6112518161123c565b82525050565b60e08201600082015161126d60008501826111cb565b506020820151611280602085018261120c565b50604082015161129360408501826111cb565b5060608201516112a6606085018261122d565b5060808201516112b9608085018261122d565b5060a08201516112cc60a08501826111cb565b5060c08201516112df60c0850182611248565b50505050565b60006112f18383611257565b60e08301905092915050565b6000602082019050919050565b600061131582611195565b61131f81856111a0565b935061132a836111b1565b8060005b8381101561135b57815161134288826112e5565b975061134d836112fd565b92505060018101905061132e565b5085935050505092915050565b60006020820190508181036000830152611382818461130a565b905092915050565b611393816111c1565b82525050565b60006020820190506113ae600083018461138a565b92915050565b600080fd5b6113c2816111fa565b81146113cd57600080fd5b50565b6000813590506113df816113b9565b92915050565b6113ee816111c1565b81146113f957600080fd5b50565b60008135905061140b816113e5565b92915050565b60008060006060848603121561142a576114296113b4565b5b6000611438868287016113d0565b9350506020611449868287016113fc565b925050604061145a868287016113fc565b9150509250925092565b6000806040838503121561147b5761147a6113b4565b5b6000611489858286016113d0565b925050602061149a858286016113fc565b9150509250929050565b7f4e487b7100000000000000000000000000000000000000000000000000000000600052601160045260246000fd5b60006114de826111c1565b91506114e9836111c1565b9250827fffffffffffffffffffffffffffffffffffffffffffffffffffffffffffffffff0382111561151e5761151d6114a4565b5b828201905092915050565b6000611534826111c1565b91507fffffffffffffffffffffffffffffffffffffffffffffffffffffffffffffffff8203611566576115656114a4565b5b600182019050919050565b7f4e487b7100000000000000000000000000000000000000000000000000000000600052604160045260246000fd5b7f4e487b7100000000000000000000000000000000000000000000000000000000600052603260045260246000fd5b600082825260208201905092915050565b7f5265656e7472616e637947756172643a207265656e7472616e742063616c6c00600082015250565b6000611616601f836115cf565b9150611621826115e0565b602082019050919050565b6000602082019050818103600083015261164581611609565b9050919050565b7f5072696365206d757374206265206174206c65617374206f6e65207765690000600082015250565b6000611682601e836115cf565b915061168d8261164c565b602082019050919050565b600060208201905081810360008301526116b181611675565b9050919050565b7f5072696365206d75737420626520657175616c20746f206c697374696e67207060008201527f7269636500000000000000000000000000000000000000000000000000000000602082015250565b60006117146024836115cf565b915061171f826116b8565b604082019050919050565b6000602082019050818103600083015261174381611707565b9050919050565b611753816111fa565b82525050565b600060608201905061176e600083018661174a565b61177b602083018561174a565b611788604083018461138a565b949350505050565b6117998161123c565b82525050565b60006080820190506117b4600083018761174a565b6117c1602083018661174a565b6117ce604083018561138a565b6117db6060830184611790565b95945050505050565b60006117ef826111c1565b91506117fa836111c1565b92508282101561180d5761180c6114a4565b5b828203905092915050565b7f506c65617365207375626d6974207468652061736b696e67207072696365206960008201527f6e206f7264657220746f20636f6e74696e756500000000000000000000000000602082015250565b60006118746033836115cf565b915061187f82611818565b604082019050919050565b600060208201905081810360008301526118a381611867565b905091905056fea2646970667358221220617d466bea72df777eb03d6455c37681136c6812d75514568031f36f7bd234c564736f6c634300080d0033",
  "immutableReferences": {},
  "source": "// SPDX-License-Identifier: MIT\npragma solidity ^0.8.4;\n\nimport '@openzeppelin/contracts/token/ERC721/ERC721.sol';\nimport '@openzeppelin/contracts/security/ReentrancyGuard.sol';\nimport '@openzeppelin/contracts/utils/Counters.sol';\n\n// security against transactions for multiple requests\n\ncontract PotatoMarket is ReentrancyGuard {\n  using Counters for Counters.Counter;\n\n  /* number of items minting, number of transactions, tokenn that not have been sold\n   keep track of token total number - tokenId\n   arrays needto knoe the length - help to keep track for arrays */\n\n  Counters.Counter private _tokenIds;\n  Counters.Counter private _tokenSold;\n\n  // determine who is owner of the contract\n  // charge a linting fee so the owner makes a commission\n\n  address payable owner;\n  // we are deploy to matic the API is the same so you can use ether the same way as matic\n  // they both have 18 decimal\n  // 0.045 is in the cents\n  uint256 listingPrice = 0.045 ether;\n\n  constructor() {\n    // set the owner\n    owner = payable(msg.sender);\n  }\n\n  // struct can act like objects\n\n  struct MarketToken {\n    uint256 itemId;\n    address nftContract;\n    uint256 tokenId;\n    address payable seller;\n    address payable owner;\n    uint256 price;\n    bool sold;\n  }\n\n  // tokenId return which MarketToken - fetch wich one it is\n\n  mapping(uint256 => MarketToken) private idToMarketToken;\n\n  // listen to event from front end application\n  event MarketTokenMinted(\n    uint256 indexed itemId,\n    address indexed nftContract,\n    uint256 indexed tokenId,\n    address seller,\n    address owner,\n    uint256 price,\n    bool sold\n  );\n\n  // get the listing price\n  function getListingPrice() public view returns (uint256) {\n    return listingPrice;\n  }\n\n  // two functions to interact with contract\n  // 1. create a market item to put it up for sale\n  // 2. create a market sale for buying and selling between parties\n\n  function mintMarketItem(\n    address nftContract,\n    uint256 tokenId,\n    uint256 price\n  ) public payable nonReentrant {\n    // nonReentrant is a modifier to prevent reentry attact\n\n    require(price > 0, 'Price must be at least one wei');\n    require(msg.value == listingPrice, 'Price must be equal to listing price');\n\n    _tokenIds.increment();\n    uint256 itemId = _tokenIds.current();\n\n    // putting it up for sale - bool - no owner\n    idToMarketToken[itemId] = MarketToken(\n      itemId,\n      nftContract,\n      tokenId,\n      payable(msg.sender),\n      payable(address(0)),\n      price,\n      false\n    );\n\n    // NFT transaction\n    IERC721(nftContract).transferFrom(msg.sender, address(this), tokenId);\n\n    emit MarketTokenMinted(itemId, nftContract, tokenId, msg.sender, address(0), price, false);\n  }\n\n  // function to conduct transcation and market sale\n\n  function createMarketSale(address nftContract, uint256 itemId) public payable nonReentrant {\n    uint256 price = idToMarketToken[itemId].price;\n    uint256 tokenId = idToMarketToken[itemId].tokenId;\n    require(msg.value == price, 'Please submit the asking price in order to continue');\n\n    // transfer the amount to the seller\n    idToMarketToken[itemId].seller.transfer(msg.value);\n    // transfer the token from contract address to the buyer\n    IERC721(nftContract).transferFrom(address(this), msg.sender, tokenId);\n    idToMarketToken[itemId].owner = payable(msg.sender);\n    idToMarketToken[itemId].sold = true;\n    _tokenSold.increment();\n\n    payable(owner).transfer(listingPrice);\n  }\n\n  // function to fetchMarketItem - minting, buying and selling\n  // return the number of unsold items\n\n  function fetchMarketItem() public view returns (MarketToken[] memory) {\n    uint256 itemCount = _tokenIds.current();\n    uint256 unsoldItemCount = _tokenIds.current() - _tokenSold.current();\n    uint256 currentIndex = 0;\n\n    // looping over the number of  items created\n    MarketToken[] memory items = new MarketToken[](unsoldItemCount);\n    for (uint256 i = 0; i < itemCount; i++) {\n      if (idToMarketToken[i + 1].owner == address(0)) {\n        uint256 currentId = i + 1;\n        MarketToken storage currentItem = idToMarketToken[currentId];\n        items[currentIndex] = currentItem;\n        currentIndex += 1;\n      }\n    }\n    return items;\n  }\n\n  // return nfts that the user has purchased\n\n  function fetchMyNfts() public view returns (MarketToken[] memory) {\n    uint256 totalItemCount = _tokenIds.current();\n    // a second counter for each individual user\n    uint256 itemCount = 0;\n    uint256 currentIndex = 0;\n\n    for (uint256 i = 0; i < totalItemCount; i++) {\n      if (idToMarketToken[i + 1].owner == msg.sender) {\n        itemCount += 1;\n      }\n    }\n\n    // second loop to loop through the amount you  have purchased with itemCount\n    // check to see if the owner address is equal to msg.sender\n\n    MarketToken[] memory items = new MarketToken[](itemCount);\n    for (uint256 i = 0; i < totalItemCount; i++) {\n      if (idToMarketToken[i + 1].owner == msg.sender) {\n        uint256 currentId = idToMarketToken[i + 1].itemId;\n        // current array\n        MarketToken storage currentItem = idToMarketToken[currentId];\n        items[currentIndex] = currentItem;\n        currentIndex += 1;\n      }\n    }\n    return items;\n  }\n\n  // function for returning an array of minted nfts\n  function fetchItemCreated() public view returns (MarketToken[] memory) {\n    // instead of .owner it will be the .seller\n    uint256 totalItemCount = _tokenIds.current();\n    uint256 itemCount = 0;\n    uint256 currentIndex = 0;\n\n    for (uint256 i = 0; i < totalItemCount; i++) {\n      if (idToMarketToken[i + 1].seller == msg.sender) {\n        itemCount += 1;\n      }\n    }\n\n    // second loop to loop through the amount you  have purchased with itemCount\n    // check to see if the owner address is equal to msg.sender\n\n    MarketToken[] memory items = new MarketToken[](itemCount);\n    for (uint256 i = 0; i < totalItemCount; i++) {\n      if (idToMarketToken[i + 1].seller == msg.sender) {\n        uint256 currentId = idToMarketToken[i + 1].itemId;\n\n        MarketToken storage currentItem = idToMarketToken[currentId];\n        items[currentIndex] = currentItem;\n        currentIndex += 1;\n      }\n    }\n    return items;\n  }\n}\n",
  "sourcePath": "D:\\PROJECT\\pet-shop-react\\contracts\\PotatoMarket.sol",
  "compiler": {
    "name": "solc",
    "version": "0.8.13+commit.abaa5c0e.Emscripten.clang"
  },
  "schemaVersion": "3.4.6",
  "updatedAt": "2022-04-30T05:12:36.943Z",
  "networkType": "ethereum",
  "devdoc": {
    "kind": "dev",
    "methods": {},
    "version": 1
  },
  "userdoc": {
    "kind": "user",
    "methods": {},
    "version": 1
  }
}