{
  "contractName": "NFT",
  "abi": [
    {
      "inputs": [
        {
          "internalType": "address",
          "name": "marketplaceAddress",
          "type": "address"
        }
      ],
      "stateMutability": "nonpayable",
      "type": "constructor"
    },
    {
      "anonymous": false,
      "inputs": [
        {
          "indexed": true,
          "internalType": "address",
          "name": "owner",
          "type": "address"
        },
        {
          "indexed": true,
          "internalType": "address",
          "name": "approved",
          "type": "address"
        },
        {
          "indexed": true,
          "internalType": "uint256",
          "name": "tokenId",
          "type": "uint256"
        }
      ],
      "name": "Approval",
      "type": "event"
    },
    {
      "anonymous": false,
      "inputs": [
        {
          "indexed": true,
          "internalType": "address",
          "name": "owner",
          "type": "address"
        },
        {
          "indexed": true,
          "internalType": "address",
          "name": "operator",
          "type": "address"
        },
        {
          "indexed": false,
          "internalType": "bool",
          "name": "approved",
          "type": "bool"
        }
      ],
      "name": "ApprovalForAll",
      "type": "event"
    },
    {
      "anonymous": false,
      "inputs": [
        {
          "indexed": true,
          "internalType": "address",
          "name": "minter",
          "type": "address"
        },
        {
          "indexed": false,
          "internalType": "string",
          "name": "tokenURI",
          "type": "string"
        },
        {
          "indexed": false,
          "internalType": "uint256",
          "name": "nftId",
          "type": "uint256"
        }
      ],
      "name": "MintedNFT",
      "type": "event"
    },
    {
      "anonymous": false,
      "inputs": [
        {
          "indexed": true,
          "internalType": "address",
          "name": "from",
          "type": "address"
        },
        {
          "indexed": true,
          "internalType": "address",
          "name": "to",
          "type": "address"
        },
        {
          "indexed": true,
          "internalType": "uint256",
          "name": "tokenId",
          "type": "uint256"
        }
      ],
      "name": "Transfer",
      "type": "event"
    },
    {
      "inputs": [
        {
          "internalType": "address",
          "name": "to",
          "type": "address"
        },
        {
          "internalType": "uint256",
          "name": "tokenId",
          "type": "uint256"
        }
      ],
      "name": "approve",
      "outputs": [],
      "stateMutability": "nonpayable",
      "type": "function"
    },
    {
      "inputs": [
        {
          "internalType": "address",
          "name": "owner",
          "type": "address"
        }
      ],
      "name": "balanceOf",
      "outputs": [
        {
          "internalType": "uint256",
          "name": "",
          "type": "uint256"
        }
      ],
      "stateMutability": "view",
      "type": "function",
      "constant": true
    },
    {
      "inputs": [
        {
          "internalType": "uint256",
          "name": "tokenId",
          "type": "uint256"
        }
      ],
      "name": "getApproved",
      "outputs": [
        {
          "internalType": "address",
          "name": "",
          "type": "address"
        }
      ],
      "stateMutability": "view",
      "type": "function",
      "constant": true
    },
    {
      "inputs": [
        {
          "internalType": "address",
          "name": "owner",
          "type": "address"
        },
        {
          "internalType": "address",
          "name": "operator",
          "type": "address"
        }
      ],
      "name": "isApprovedForAll",
      "outputs": [
        {
          "internalType": "bool",
          "name": "",
          "type": "bool"
        }
      ],
      "stateMutability": "view",
      "type": "function",
      "constant": true
    },
    {
      "inputs": [],
      "name": "name",
      "outputs": [
        {
          "internalType": "string",
          "name": "",
          "type": "string"
        }
      ],
      "stateMutability": "view",
      "type": "function",
      "constant": true
    },
    {
      "inputs": [
        {
          "internalType": "uint256",
          "name": "tokenId",
          "type": "uint256"
        }
      ],
      "name": "ownerOf",
      "outputs": [
        {
          "internalType": "address",
          "name": "",
          "type": "address"
        }
      ],
      "stateMutability": "view",
      "type": "function",
      "constant": true
    },
    {
      "inputs": [
        {
          "internalType": "address",
          "name": "from",
          "type": "address"
        },
        {
          "internalType": "address",
          "name": "to",
          "type": "address"
        },
        {
          "internalType": "uint256",
          "name": "tokenId",
          "type": "uint256"
        }
      ],
      "name": "safeTransferFrom",
      "outputs": [],
      "stateMutability": "nonpayable",
      "type": "function"
    },
    {
      "inputs": [
        {
          "internalType": "address",
          "name": "from",
          "type": "address"
        },
        {
          "internalType": "address",
          "name": "to",
          "type": "address"
        },
        {
          "internalType": "uint256",
          "name": "tokenId",
          "type": "uint256"
        },
        {
          "internalType": "bytes",
          "name": "_data",
          "type": "bytes"
        }
      ],
      "name": "safeTransferFrom",
      "outputs": [],
      "stateMutability": "nonpayable",
      "type": "function"
    },
    {
      "inputs": [
        {
          "internalType": "address",
          "name": "operator",
          "type": "address"
        },
        {
          "internalType": "bool",
          "name": "approved",
          "type": "bool"
        }
      ],
      "name": "setApprovalForAll",
      "outputs": [],
      "stateMutability": "nonpayable",
      "type": "function"
    },
    {
      "inputs": [
        {
          "internalType": "bytes4",
          "name": "interfaceId",
          "type": "bytes4"
        }
      ],
      "name": "supportsInterface",
      "outputs": [
        {
          "internalType": "bool",
          "name": "",
          "type": "bool"
        }
      ],
      "stateMutability": "view",
      "type": "function",
      "constant": true
    },
    {
      "inputs": [],
      "name": "symbol",
      "outputs": [
        {
          "internalType": "string",
          "name": "",
          "type": "string"
        }
      ],
      "stateMutability": "view",
      "type": "function",
      "constant": true
    },
    {
      "inputs": [
        {
          "internalType": "uint256",
          "name": "tokenId",
          "type": "uint256"
        }
      ],
      "name": "tokenURI",
      "outputs": [
        {
          "internalType": "string",
          "name": "",
          "type": "string"
        }
      ],
      "stateMutability": "view",
      "type": "function",
      "constant": true
    },
    {
      "inputs": [
        {
          "internalType": "address",
          "name": "from",
          "type": "address"
        },
        {
          "internalType": "address",
          "name": "to",
          "type": "address"
        },
        {
          "internalType": "uint256",
          "name": "tokenId",
          "type": "uint256"
        }
      ],
      "name": "transferFrom",
      "outputs": [],
      "stateMutability": "nonpayable",
      "type": "function"
    },
    {
      "inputs": [
        {
          "internalType": "string",
          "name": "tokenURI",
          "type": "string"
        }
      ],
      "name": "mintToken",
      "outputs": [
        {
          "internalType": "uint256",
          "name": "",
          "type": "uint256"
        }
      ],
      "stateMutability": "nonpayable",
      "type": "function"
    }
  ],
  "bytecode": "0x60806040523480156200001157600080fd5b5060405162003024380380620030248339818101604052810190620000379190620002ab565b6040518060400160405280600681526020017f506f7461746f00000000000000000000000000000000000000000000000000008152506040518060400160405280600381526020017f50545400000000000000000000000000000000000000000000000000000000008152508160009080519060200190620000bb92919062000191565b508060019080519060200190620000d492919062000191565b505050600073ffffffffffffffffffffffffffffffffffffffff168173ffffffffffffffffffffffffffffffffffffffff160362000149576040517f08c379a000000000000000000000000000000000000000000000000000000000815260040162000140906200033e565b60405180910390fd5b80600860006101000a81548173ffffffffffffffffffffffffffffffffffffffff021916908373ffffffffffffffffffffffffffffffffffffffff16021790555050620003c4565b8280546200019f906200038f565b90600052602060002090601f016020900481019282620001c357600085556200020f565b82601f10620001de57805160ff19168380011785556200020f565b828001600101855582156200020f579182015b828111156200020e578251825591602001919060010190620001f1565b5b5090506200021e919062000222565b5090565b5b808211156200023d57600081600090555060010162000223565b5090565b600080fd5b600073ffffffffffffffffffffffffffffffffffffffff82169050919050565b6000620002738262000246565b9050919050565b620002858162000266565b81146200029157600080fd5b50565b600081519050620002a5816200027a565b92915050565b600060208284031215620002c457620002c362000241565b5b6000620002d48482850162000294565b91505092915050565b600082825260208201905092915050565b7f4e46543a20696e76616c6964206d61726b657420616464726573730000000000600082015250565b600062000326601b83620002dd565b91506200033382620002ee565b602082019050919050565b60006020820190508181036000830152620003598162000317565b9050919050565b7f4e487b7100000000000000000000000000000000000000000000000000000000600052602260045260246000fd5b60006002820490506001821680620003a857607f821691505b602082108103620003be57620003bd62000360565b5b50919050565b612c5080620003d46000396000f3fe608060405234801561001057600080fd5b50600436106100ea5760003560e01c80636352211e1161008c578063a22cb46511610066578063a22cb4651461026f578063b88d4fde1461028b578063c87b56dd146102a7578063e985e9c5146102d7576100ea565b80636352211e146101f157806370a082311461022157806395d89b4114610251576100ea565b8063095ea7b3116100c8578063095ea7b31461016d57806323b872dd1461018957806333eba49a146101a557806342842e0e146101d5576100ea565b806301ffc9a7146100ef57806306fdde031461011f578063081812fc1461013d575b600080fd5b61010960048036038101906101049190611997565b610307565b60405161011691906119df565b60405180910390f35b6101276103e9565b6040516101349190611a93565b60405180910390f35b61015760048036038101906101529190611aeb565b61047b565b6040516101649190611b59565b60405180910390f35b61018760048036038101906101829190611ba0565b610500565b005b6101a3600480360381019061019e9190611be0565b610617565b005b6101bf60048036038101906101ba9190611d68565b610677565b6040516101cc9190611dc0565b60405180910390f35b6101ef60048036038101906101ea9190611be0565b61072b565b005b61020b60048036038101906102069190611aeb565b61074b565b6040516102189190611b59565b60405180910390f35b61023b60048036038101906102369190611ddb565b6107fc565b6040516102489190611dc0565b60405180910390f35b6102596108b3565b6040516102669190611a93565b60405180910390f35b61028960048036038101906102849190611e34565b610945565b005b6102a560048036038101906102a09190611f15565b61095b565b005b6102c160048036038101906102bc9190611aeb565b6109bd565b6040516102ce9190611a93565b60405180910390f35b6102f160048036038101906102ec9190611f98565b610b0e565b6040516102fe91906119df565b60405180910390f35b60007f80ac58cd000000000000000000000000000000000000000000000000000000007bffffffffffffffffffffffffffffffffffffffffffffffffffffffff1916827bffffffffffffffffffffffffffffffffffffffffffffffffffffffff191614806103d257507f5b5e139f000000000000000000000000000000000000000000000000000000007bffffffffffffffffffffffffffffffffffffffffffffffffffffffff1916827bffffffffffffffffffffffffffffffffffffffffffffffffffffffff1916145b806103e257506103e182610ba2565b5b9050919050565b6060600080546103f890612007565b80601f016020809104026020016040519081016040528092919081815260200182805461042490612007565b80156104715780601f1061044657610100808354040283529160200191610471565b820191906000526020600020905b81548152906001019060200180831161045457829003601f168201915b5050505050905090565b600061048682610c0c565b6104c5576040517f08c379a00000000000000000000000000000000000000000000000000000000081526004016104bc906120aa565b60405180910390fd5b6004600083815260200190815260200160002060009054906101000a900473ffffffffffffffffffffffffffffffffffffffff169050919050565b600061050b8261074b565b90508073ffffffffffffffffffffffffffffffffffffffff168373ffffffffffffffffffffffffffffffffffffffff160361057b576040517f08c379a00000000000000000000000000000000000000000000000000000000081526004016105729061213c565b60405180910390fd5b8073ffffffffffffffffffffffffffffffffffffffff1661059a610c78565b73ffffffffffffffffffffffffffffffffffffffff1614806105c957506105c8816105c3610c78565b610b0e565b5b610608576040517f08c379a00000000000000000000000000000000000000000000000000000000081526004016105ff906121ce565b60405180910390fd5b6106128383610c80565b505050565b610628610622610c78565b82610d39565b610667576040517f08c379a000000000000000000000000000000000000000000000000000000000815260040161065e90612260565b60405180910390fd5b610672838383610e17565b505050565b6000610683600761107d565b600061068f6007611093565b905061069b33826110a1565b6106a5818461127a565b6106d2600860009054906101000a900473ffffffffffffffffffffffffffffffffffffffff166001610945565b3373ffffffffffffffffffffffffffffffffffffffff167f138721d96bbd7f56166064906bbbf2e3594b5fc52019de0c7a15aa4160ccae19848360405161071a929190612280565b60405180910390a280915050919050565b6107468383836040518060200160405280600081525061095b565b505050565b6000806002600084815260200190815260200160002060009054906101000a900473ffffffffffffffffffffffffffffffffffffffff169050600073ffffffffffffffffffffffffffffffffffffffff168173ffffffffffffffffffffffffffffffffffffffff16036107f3576040517f08c379a00000000000000000000000000000000000000000000000000000000081526004016107ea90612322565b60405180910390fd5b80915050919050565b60008073ffffffffffffffffffffffffffffffffffffffff168273ffffffffffffffffffffffffffffffffffffffff160361086c576040517f08c379a0000000000000000000000000000000000000000000000000000000008152600401610863906123b4565b60405180910390fd5b600360008373ffffffffffffffffffffffffffffffffffffffff1673ffffffffffffffffffffffffffffffffffffffff168152602001908152602001600020549050919050565b6060600180546108c290612007565b80601f01602080910402602001604051908101604052809291908181526020018280546108ee90612007565b801561093b5780601f106109105761010080835404028352916020019161093b565b820191906000526020600020905b81548152906001019060200180831161091e57829003601f168201915b5050505050905090565b610957610950610c78565b83836112ee565b5050565b61096c610966610c78565b83610d39565b6109ab576040517f08c379a00000000000000000000000000000000000000000000000000000000081526004016109a290612260565b60405180910390fd5b6109b78484848461145a565b50505050565b60606109c882610c0c565b610a07576040517f08c379a00000000000000000000000000000000000000000000000000000000081526004016109fe90612446565b60405180910390fd5b6000600660008481526020019081526020016000208054610a2790612007565b80601f0160208091040260200160405190810160405280929190818152602001828054610a5390612007565b8015610aa05780601f10610a7557610100808354040283529160200191610aa0565b820191906000526020600020905b815481529060010190602001808311610a8357829003601f168201915b505050505090506000610ab16114b6565b90506000815103610ac6578192505050610b09565b600082511115610afb578082604051602001610ae39291906124a2565b60405160208183030381529060405292505050610b09565b610b04846114cd565b925050505b919050565b6000600560008473ffffffffffffffffffffffffffffffffffffffff1673ffffffffffffffffffffffffffffffffffffffff16815260200190815260200160002060008373ffffffffffffffffffffffffffffffffffffffff1673ffffffffffffffffffffffffffffffffffffffff16815260200190815260200160002060009054906101000a900460ff16905092915050565b60007f01ffc9a7000000000000000000000000000000000000000000000000000000007bffffffffffffffffffffffffffffffffffffffffffffffffffffffff1916827bffffffffffffffffffffffffffffffffffffffffffffffffffffffff1916149050919050565b60008073ffffffffffffffffffffffffffffffffffffffff166002600084815260200190815260200160002060009054906101000a900473ffffffffffffffffffffffffffffffffffffffff1673ffffffffffffffffffffffffffffffffffffffff1614159050919050565b600033905090565b816004600083815260200190815260200160002060006101000a81548173ffffffffffffffffffffffffffffffffffffffff021916908373ffffffffffffffffffffffffffffffffffffffff160217905550808273ffffffffffffffffffffffffffffffffffffffff16610cf38361074b565b73ffffffffffffffffffffffffffffffffffffffff167f8c5be1e5ebec7d5bd14f71427d1e84f3dd0314c0f7b2291e5b200ac8c7c3b92560405160405180910390a45050565b6000610d4482610c0c565b610d83576040517f08c379a0000000000000000000000000000000000000000000000000000000008152600401610d7a90612538565b60405180910390fd5b6000610d8e8361074b565b90508073ffffffffffffffffffffffffffffffffffffffff168473ffffffffffffffffffffffffffffffffffffffff161480610dd05750610dcf8185610b0e565b5b80610e0e57508373ffffffffffffffffffffffffffffffffffffffff16610df68461047b565b73ffffffffffffffffffffffffffffffffffffffff16145b91505092915050565b8273ffffffffffffffffffffffffffffffffffffffff16610e378261074b565b73ffffffffffffffffffffffffffffffffffffffff1614610e8d576040517f08c379a0000000000000000000000000000000000000000000000000000000008152600401610e84906125ca565b60405180910390fd5b600073ffffffffffffffffffffffffffffffffffffffff168273ffffffffffffffffffffffffffffffffffffffff1603610efc576040517f08c379a0000000000000000000000000000000000000000000000000000000008152600401610ef39061265c565b60405180910390fd5b610f07838383611574565b610f12600082610c80565b6001600360008573ffffffffffffffffffffffffffffffffffffffff1673ffffffffffffffffffffffffffffffffffffffff1681526020019081526020016000206000828254610f6291906126ab565b925050819055506001600360008473ffffffffffffffffffffffffffffffffffffffff1673ffffffffffffffffffffffffffffffffffffffff1681526020019081526020016000206000828254610fb991906126df565b92505081905550816002600083815260200190815260200160002060006101000a81548173ffffffffffffffffffffffffffffffffffffffff021916908373ffffffffffffffffffffffffffffffffffffffff160217905550808273ffffffffffffffffffffffffffffffffffffffff168473ffffffffffffffffffffffffffffffffffffffff167fddf252ad1be2c89b69c2b068fc378daa952ba7f163c4a11628f55a4df523b3ef60405160405180910390a4611078838383611579565b505050565b6001816000016000828254019250508190555050565b600081600001549050919050565b600073ffffffffffffffffffffffffffffffffffffffff168273ffffffffffffffffffffffffffffffffffffffff1603611110576040517f08c379a000000000000000000000000000000000000000000000000000000000815260040161110790612781565b60405180910390fd5b61111981610c0c565b15611159576040517f08c379a0000000000000000000000000000000000000000000000000000000008152600401611150906127ed565b60405180910390fd5b61116560008383611574565b6001600360008473ffffffffffffffffffffffffffffffffffffffff1673ffffffffffffffffffffffffffffffffffffffff16815260200190815260200160002060008282546111b591906126df565b92505081905550816002600083815260200190815260200160002060006101000a81548173ffffffffffffffffffffffffffffffffffffffff021916908373ffffffffffffffffffffffffffffffffffffffff160217905550808273ffffffffffffffffffffffffffffffffffffffff16600073ffffffffffffffffffffffffffffffffffffffff167fddf252ad1be2c89b69c2b068fc378daa952ba7f163c4a11628f55a4df523b3ef60405160405180910390a461127660008383611579565b5050565b61128382610c0c565b6112c2576040517f08c379a00000000000000000000000000000000000000000000000000000000081526004016112b99061287f565b60405180910390fd5b806006600084815260200190815260200160002090805190602001906112e9929190611888565b505050565b8173ffffffffffffffffffffffffffffffffffffffff168373ffffffffffffffffffffffffffffffffffffffff160361135c576040517f08c379a0000000000000000000000000000000000000000000000000000000008152600401611353906128eb565b60405180910390fd5b80600560008573ffffffffffffffffffffffffffffffffffffffff1673ffffffffffffffffffffffffffffffffffffffff16815260200190815260200160002060008473ffffffffffffffffffffffffffffffffffffffff1673ffffffffffffffffffffffffffffffffffffffff16815260200190815260200160002060006101000a81548160ff0219169083151502179055508173ffffffffffffffffffffffffffffffffffffffff168373ffffffffffffffffffffffffffffffffffffffff167f17307eab39ab6107e8899845ad3d59bd9653f200f220920489ca2b5937696c318360405161144d91906119df565b60405180910390a3505050565b611465848484610e17565b6114718484848461157e565b6114b0576040517f08c379a00000000000000000000000000000000000000000000000000000000081526004016114a79061297d565b60405180910390fd5b50505050565b606060405180602001604052806000815250905090565b60606114d882610c0c565b611517576040517f08c379a000000000000000000000000000000000000000000000000000000000815260040161150e90612a0f565b60405180910390fd5b60006115216114b6565b90506000815111611541576040518060200160405280600081525061156c565b8061154b84611705565b60405160200161155c9291906124a2565b6040516020818303038152906040525b915050919050565b505050565b505050565b600061159f8473ffffffffffffffffffffffffffffffffffffffff16611865565b156116f8578373ffffffffffffffffffffffffffffffffffffffff1663150b7a026115c8610c78565b8786866040518563ffffffff1660e01b81526004016115ea9493929190612a84565b6020604051808303816000875af192505050801561162657506040513d601f19601f820116820180604052508101906116239190612ae5565b60015b6116a8573d8060008114611656576040519150601f19603f3d011682016040523d82523d6000602084013e61165b565b606091505b5060008151036116a0576040517f08c379a00000000000000000000000000000000000000000000000000000000081526004016116979061297d565b60405180910390fd5b805181602001fd5b63150b7a0260e01b7bffffffffffffffffffffffffffffffffffffffffffffffffffffffff1916817bffffffffffffffffffffffffffffffffffffffffffffffffffffffff1916149150506116fd565b600190505b949350505050565b60606000820361174c576040518060400160405280600181526020017f30000000000000000000000000000000000000000000000000000000000000008152509050611860565b600082905060005b6000821461177e57808061176790612b12565b915050600a826117779190612b89565b9150611754565b60008167ffffffffffffffff81111561179a57611799611c3d565b5b6040519080825280601f01601f1916602001820160405280156117cc5781602001600182028036833780820191505090505b5090505b60008514611859576001826117e591906126ab565b9150600a856117f49190612bba565b603061180091906126df565b60f81b81838151811061181657611815612beb565b5b60200101907effffffffffffffffffffffffffffffffffffffffffffffffffffffffffffff1916908160001a905350600a856118529190612b89565b94506117d0565b8093505050505b919050565b6000808273ffffffffffffffffffffffffffffffffffffffff163b119050919050565b82805461189490612007565b90600052602060002090601f0160209004810192826118b657600085556118fd565b82601f106118cf57805160ff19168380011785556118fd565b828001600101855582156118fd579182015b828111156118fc5782518255916020019190600101906118e1565b5b50905061190a919061190e565b5090565b5b8082111561192757600081600090555060010161190f565b5090565b6000604051905090565b600080fd5b600080fd5b60007fffffffff0000000000000000000000000000000000000000000000000000000082169050919050565b6119748161193f565b811461197f57600080fd5b50565b6000813590506119918161196b565b92915050565b6000602082840312156119ad576119ac611935565b5b60006119bb84828501611982565b91505092915050565b60008115159050919050565b6119d9816119c4565b82525050565b60006020820190506119f460008301846119d0565b92915050565b600081519050919050565b600082825260208201905092915050565b60005b83811015611a34578082015181840152602081019050611a19565b83811115611a43576000848401525b50505050565b6000601f19601f8301169050919050565b6000611a65826119fa565b611a6f8185611a05565b9350611a7f818560208601611a16565b611a8881611a49565b840191505092915050565b60006020820190508181036000830152611aad8184611a5a565b905092915050565b6000819050919050565b611ac881611ab5565b8114611ad357600080fd5b50565b600081359050611ae581611abf565b92915050565b600060208284031215611b0157611b00611935565b5b6000611b0f84828501611ad6565b91505092915050565b600073ffffffffffffffffffffffffffffffffffffffff82169050919050565b6000611b4382611b18565b9050919050565b611b5381611b38565b82525050565b6000602082019050611b6e6000830184611b4a565b92915050565b611b7d81611b38565b8114611b8857600080fd5b50565b600081359050611b9a81611b74565b92915050565b60008060408385031215611bb757611bb6611935565b5b6000611bc585828601611b8b565b9250506020611bd685828601611ad6565b9150509250929050565b600080600060608486031215611bf957611bf8611935565b5b6000611c0786828701611b8b565b9350506020611c1886828701611b8b565b9250506040611c2986828701611ad6565b9150509250925092565b600080fd5b600080fd5b7f4e487b7100000000000000000000000000000000000000000000000000000000600052604160045260246000fd5b611c7582611a49565b810181811067ffffffffffffffff82111715611c9457611c93611c3d565b5b80604052505050565b6000611ca761192b565b9050611cb38282611c6c565b919050565b600067ffffffffffffffff821115611cd357611cd2611c3d565b5b611cdc82611a49565b9050602081019050919050565b82818337600083830152505050565b6000611d0b611d0684611cb8565b611c9d565b905082815260208101848484011115611d2757611d26611c38565b5b611d32848285611ce9565b509392505050565b600082601f830112611d4f57611d4e611c33565b5b8135611d5f848260208601611cf8565b91505092915050565b600060208284031215611d7e57611d7d611935565b5b600082013567ffffffffffffffff811115611d9c57611d9b61193a565b5b611da884828501611d3a565b91505092915050565b611dba81611ab5565b82525050565b6000602082019050611dd56000830184611db1565b92915050565b600060208284031215611df157611df0611935565b5b6000611dff84828501611b8b565b91505092915050565b611e11816119c4565b8114611e1c57600080fd5b50565b600081359050611e2e81611e08565b92915050565b60008060408385031215611e4b57611e4a611935565b5b6000611e5985828601611b8b565b9250506020611e6a85828601611e1f565b9150509250929050565b600067ffffffffffffffff821115611e8f57611e8e611c3d565b5b611e9882611a49565b9050602081019050919050565b6000611eb8611eb384611e74565b611c9d565b905082815260208101848484011115611ed457611ed3611c38565b5b611edf848285611ce9565b509392505050565b600082601f830112611efc57611efb611c33565b5b8135611f0c848260208601611ea5565b91505092915050565b60008060008060808587031215611f2f57611f2e611935565b5b6000611f3d87828801611b8b565b9450506020611f4e87828801611b8b565b9350506040611f5f87828801611ad6565b925050606085013567ffffffffffffffff811115611f8057611f7f61193a565b5b611f8c87828801611ee7565b91505092959194509250565b60008060408385031215611faf57611fae611935565b5b6000611fbd85828601611b8b565b9250506020611fce85828601611b8b565b9150509250929050565b7f4e487b7100000000000000000000000000000000000000000000000000000000600052602260045260246000fd5b6000600282049050600182168061201f57607f821691505b60208210810361203257612031611fd8565b5b50919050565b7f4552433732313a20617070726f76656420717565727920666f72206e6f6e657860008201527f697374656e7420746f6b656e0000000000000000000000000000000000000000602082015250565b6000612094602c83611a05565b915061209f82612038565b604082019050919050565b600060208201905081810360008301526120c381612087565b9050919050565b7f4552433732313a20617070726f76616c20746f2063757272656e74206f776e6560008201527f7200000000000000000000000000000000000000000000000000000000000000602082015250565b6000612126602183611a05565b9150612131826120ca565b604082019050919050565b6000602082019050818103600083015261215581612119565b9050919050565b7f4552433732313a20617070726f76652063616c6c6572206973206e6f74206f7760008201527f6e6572206e6f7220617070726f76656420666f7220616c6c0000000000000000602082015250565b60006121b8603883611a05565b91506121c38261215c565b604082019050919050565b600060208201905081810360008301526121e7816121ab565b9050919050565b7f4552433732313a207472616e736665722063616c6c6572206973206e6f74206f60008201527f776e6572206e6f7220617070726f766564000000000000000000000000000000602082015250565b600061224a603183611a05565b9150612255826121ee565b604082019050919050565b600060208201905081810360008301526122798161223d565b9050919050565b6000604082019050818103600083015261229a8185611a5a565b90506122a96020830184611db1565b9392505050565b7f4552433732313a206f776e657220717565727920666f72206e6f6e657869737460008201527f656e7420746f6b656e0000000000000000000000000000000000000000000000602082015250565b600061230c602983611a05565b9150612317826122b0565b604082019050919050565b6000602082019050818103600083015261233b816122ff565b9050919050565b7f4552433732313a2062616c616e636520717565727920666f7220746865207a6560008201527f726f206164647265737300000000000000000000000000000000000000000000602082015250565b600061239e602a83611a05565b91506123a982612342565b604082019050919050565b600060208201905081810360008301526123cd81612391565b9050919050565b7f45524337323155524953746f726167653a2055524920717565727920666f722060008201527f6e6f6e6578697374656e7420746f6b656e000000000000000000000000000000602082015250565b6000612430603183611a05565b915061243b826123d4565b604082019050919050565b6000602082019050818103600083015261245f81612423565b9050919050565b600081905092915050565b600061247c826119fa565b6124868185612466565b9350612496818560208601611a16565b80840191505092915050565b60006124ae8285612471565b91506124ba8284612471565b91508190509392505050565b7f4552433732313a206f70657261746f7220717565727920666f72206e6f6e657860008201527f697374656e7420746f6b656e0000000000000000000000000000000000000000602082015250565b6000612522602c83611a05565b915061252d826124c6565b604082019050919050565b6000602082019050818103600083015261255181612515565b9050919050565b7f4552433732313a207472616e736665722066726f6d20696e636f72726563742060008201527f6f776e6572000000000000000000000000000000000000000000000000000000602082015250565b60006125b4602583611a05565b91506125bf82612558565b604082019050919050565b600060208201905081810360008301526125e3816125a7565b9050919050565b7f4552433732313a207472616e7366657220746f20746865207a65726f2061646460008201527f7265737300000000000000000000000000000000000000000000000000000000602082015250565b6000612646602483611a05565b9150612651826125ea565b604082019050919050565b6000602082019050818103600083015261267581612639565b9050919050565b7f4e487b7100000000000000000000000000000000000000000000000000000000600052601160045260246000fd5b60006126b682611ab5565b91506126c183611ab5565b9250828210156126d4576126d361267c565b5b828203905092915050565b60006126ea82611ab5565b91506126f583611ab5565b9250827fffffffffffffffffffffffffffffffffffffffffffffffffffffffffffffffff0382111561272a5761272961267c565b5b828201905092915050565b7f4552433732313a206d696e7420746f20746865207a65726f2061646472657373600082015250565b600061276b602083611a05565b915061277682612735565b602082019050919050565b6000602082019050818103600083015261279a8161275e565b9050919050565b7f4552433732313a20746f6b656e20616c7265616479206d696e74656400000000600082015250565b60006127d7601c83611a05565b91506127e2826127a1565b602082019050919050565b60006020820190508181036000830152612806816127ca565b9050919050565b7f45524337323155524953746f726167653a2055524920736574206f66206e6f6e60008201527f6578697374656e7420746f6b656e000000000000000000000000000000000000602082015250565b6000612869602e83611a05565b91506128748261280d565b604082019050919050565b600060208201905081810360008301526128988161285c565b9050919050565b7f4552433732313a20617070726f766520746f2063616c6c657200000000000000600082015250565b60006128d5601983611a05565b91506128e08261289f565b602082019050919050565b60006020820190508181036000830152612904816128c8565b9050919050565b7f4552433732313a207472616e7366657220746f206e6f6e20455243373231526560008201527f63656976657220696d706c656d656e7465720000000000000000000000000000602082015250565b6000612967603283611a05565b91506129728261290b565b604082019050919050565b600060208201905081810360008301526129968161295a565b9050919050565b7f4552433732314d657461646174613a2055524920717565727920666f72206e6f60008201527f6e6578697374656e7420746f6b656e0000000000000000000000000000000000602082015250565b60006129f9602f83611a05565b9150612a048261299d565b604082019050919050565b60006020820190508181036000830152612a28816129ec565b9050919050565b600081519050919050565b600082825260208201905092915050565b6000612a5682612a2f565b612a608185612a3a565b9350612a70818560208601611a16565b612a7981611a49565b840191505092915050565b6000608082019050612a996000830187611b4a565b612aa66020830186611b4a565b612ab36040830185611db1565b8181036060830152612ac58184612a4b565b905095945050505050565b600081519050612adf8161196b565b92915050565b600060208284031215612afb57612afa611935565b5b6000612b0984828501612ad0565b91505092915050565b6000612b1d82611ab5565b91507fffffffffffffffffffffffffffffffffffffffffffffffffffffffffffffffff8203612b4f57612b4e61267c565b5b600182019050919050565b7f4e487b7100000000000000000000000000000000000000000000000000000000600052601260045260246000fd5b6000612b9482611ab5565b9150612b9f83611ab5565b925082612baf57612bae612b5a565b5b828204905092915050565b6000612bc582611ab5565b9150612bd083611ab5565b925082612be057612bdf612b5a565b5b828206905092915050565b7f4e487b7100000000000000000000000000000000000000000000000000000000600052603260045260246000fdfea2646970667358221220d902e78d6e88baf3fce848a99e123d55cd45865b68176028a77df5c9ea5543bc64736f6c634300080d0033",
  "immutableReferences": {},
  "source": "// SPDX-License-Identifier: MIT\r\npragma solidity ^0.8.4;\r\n\r\nimport '@openzeppelin/contracts/token/ERC721/ERC721.sol';\r\nimport '@openzeppelin/contracts/token/ERC721/extensions/ERC721URIStorage.sol';\r\nimport '@openzeppelin/contracts/utils/Counters.sol';\r\n\r\ncontract NFT is ERC721URIStorage {\r\n  using Counters for Counters.Counter;\r\n  Counters.Counter private _tokenIds;\r\n  // counters allow us to keep tract of tokenIds\r\n\r\n  // address of marketplace for NFTs to interact\r\n  address contractAddress;\r\n\r\n  // OBJ: give the NFT market the ability to transact with tokens or change ownership\r\n  // setApprovalForAll allows us to do that with contract address\r\n\r\n  event MintedNFT(address indexed minter, string tokenURI, uint256 nftId);\r\n\r\n  // constructor set up our address\r\n  constructor(address marketplaceAddress) ERC721('Potato', 'PTT') {\r\n    require(marketplaceAddress != address(0), 'NFT: invalid market address');\r\n    contractAddress = marketplaceAddress;\r\n  }\r\n\r\n  function mintToken(string memory tokenURI) public returns (uint256) {\r\n    _tokenIds.increment();\r\n    uint256 newItemId = _tokenIds.current();\r\n    _mint(msg.sender, newItemId);\r\n    _setTokenURI(newItemId, tokenURI);\r\n    // give the market the approval to transact between users\r\n    setApprovalForAll(contractAddress, true);\r\n    // min the token and set it for sale - return the id to do so\r\n    emit MintedNFT(msg.sender, tokenURI, newItemId);\r\n\r\n    return newItemId;\r\n  }\r\n}\r\n",
  "sourcePath": "D:\\PROJECT\\pet-shop-react\\contracts\\NFT.sol",
  "compiler": {
    "name": "solc",
    "version": "0.8.13+commit.abaa5c0e.Emscripten.clang"
  },
  "schemaVersion": "3.4.7",
  "updatedAt": "2022-05-11T13:12:20.858Z",
  "networkType": "ethereum",
  "devdoc": {
    "kind": "dev",
    "methods": {
      "approve(address,uint256)": {
        "details": "See {IERC721-approve}."
      },
      "balanceOf(address)": {
        "details": "See {IERC721-balanceOf}."
      },
      "getApproved(uint256)": {
        "details": "See {IERC721-getApproved}."
      },
      "isApprovedForAll(address,address)": {
        "details": "See {IERC721-isApprovedForAll}."
      },
      "name()": {
        "details": "See {IERC721Metadata-name}."
      },
      "ownerOf(uint256)": {
        "details": "See {IERC721-ownerOf}."
      },
      "safeTransferFrom(address,address,uint256)": {
        "details": "See {IERC721-safeTransferFrom}."
      },
      "safeTransferFrom(address,address,uint256,bytes)": {
        "details": "See {IERC721-safeTransferFrom}."
      },
      "setApprovalForAll(address,bool)": {
        "details": "See {IERC721-setApprovalForAll}."
      },
      "supportsInterface(bytes4)": {
        "details": "See {IERC165-supportsInterface}."
      },
      "symbol()": {
        "details": "See {IERC721Metadata-symbol}."
      },
      "tokenURI(uint256)": {
        "details": "See {IERC721Metadata-tokenURI}."
      },
      "transferFrom(address,address,uint256)": {
        "details": "See {IERC721-transferFrom}."
      }
    },
    "version": 1
  },
  "userdoc": {
    "kind": "user",
    "methods": {},
    "version": 1
  }
}