{
  "contractName": "PotatoMarket",
  "abi": [
    {
      "inputs": [],
      "stateMutability": "nonpayable",
      "type": "constructor"
    },
    {
      "anonymous": false,
      "inputs": [
        {
          "indexed": true,
          "internalType": "uint256",
          "name": "itemId",
          "type": "uint256"
        },
        {
          "indexed": true,
          "internalType": "address",
          "name": "nftContract",
          "type": "address"
        },
        {
          "indexed": true,
          "internalType": "uint256",
          "name": "tokenId",
          "type": "uint256"
        },
        {
          "indexed": false,
          "internalType": "address",
          "name": "seller",
          "type": "address"
        },
        {
          "indexed": false,
          "internalType": "address",
          "name": "owner",
          "type": "address"
        },
        {
          "indexed": false,
          "internalType": "uint256",
          "name": "price",
          "type": "uint256"
        },
        {
          "indexed": false,
          "internalType": "bool",
          "name": "sold",
          "type": "bool"
        }
      ],
      "name": "MarketTokenMinted",
      "type": "event"
    },
    {
      "inputs": [],
      "name": "getListingPrice",
      "outputs": [
        {
          "internalType": "uint256",
          "name": "",
          "type": "uint256"
        }
      ],
      "stateMutability": "view",
      "type": "function",
      "constant": true
    },
    {
      "inputs": [
        {
          "internalType": "address",
          "name": "nftContract",
          "type": "address"
        },
        {
          "internalType": "uint256",
          "name": "tokenId",
          "type": "uint256"
        },
        {
          "internalType": "uint256",
          "name": "price",
          "type": "uint256"
        }
      ],
      "name": "makeMarketItem",
      "outputs": [],
      "stateMutability": "payable",
      "type": "function",
      "payable": true
    },
    {
      "inputs": [
        {
          "internalType": "address",
          "name": "nftContract",
          "type": "address"
        },
        {
          "internalType": "uint256",
          "name": "itemId",
          "type": "uint256"
        }
      ],
      "name": "createMarketSale",
      "outputs": [],
      "stateMutability": "payable",
      "type": "function",
      "payable": true
    },
    {
      "inputs": [],
      "name": "fetchMarketItems",
      "outputs": [
        {
          "components": [
            {
              "internalType": "uint256",
              "name": "itemId",
              "type": "uint256"
            },
            {
              "internalType": "address",
              "name": "nftContract",
              "type": "address"
            },
            {
              "internalType": "uint256",
              "name": "tokenId",
              "type": "uint256"
            },
            {
              "internalType": "address payable",
              "name": "seller",
              "type": "address"
            },
            {
              "internalType": "address payable",
              "name": "owner",
              "type": "address"
            },
            {
              "internalType": "uint256",
              "name": "price",
              "type": "uint256"
            },
            {
              "internalType": "bool",
              "name": "sold",
              "type": "bool"
            }
          ],
          "internalType": "struct PotatoMarket.MarketToken[]",
          "name": "",
          "type": "tuple[]"
        }
      ],
      "stateMutability": "view",
      "type": "function",
      "constant": true
    },
    {
      "inputs": [],
      "name": "fetchMyNfts",
      "outputs": [
        {
          "components": [
            {
              "internalType": "uint256",
              "name": "itemId",
              "type": "uint256"
            },
            {
              "internalType": "address",
              "name": "nftContract",
              "type": "address"
            },
            {
              "internalType": "uint256",
              "name": "tokenId",
              "type": "uint256"
            },
            {
              "internalType": "address payable",
              "name": "seller",
              "type": "address"
            },
            {
              "internalType": "address payable",
              "name": "owner",
              "type": "address"
            },
            {
              "internalType": "uint256",
              "name": "price",
              "type": "uint256"
            },
            {
              "internalType": "bool",
              "name": "sold",
              "type": "bool"
            }
          ],
          "internalType": "struct PotatoMarket.MarketToken[]",
          "name": "",
          "type": "tuple[]"
        }
      ],
      "stateMutability": "view",
      "type": "function",
      "constant": true
    },
    {
      "inputs": [],
      "name": "fetchItemCreated",
      "outputs": [
        {
          "components": [
            {
              "internalType": "uint256",
              "name": "itemId",
              "type": "uint256"
            },
            {
              "internalType": "address",
              "name": "nftContract",
              "type": "address"
            },
            {
              "internalType": "uint256",
              "name": "tokenId",
              "type": "uint256"
            },
            {
              "internalType": "address payable",
              "name": "seller",
              "type": "address"
            },
            {
              "internalType": "address payable",
              "name": "owner",
              "type": "address"
            },
            {
              "internalType": "uint256",
              "name": "price",
              "type": "uint256"
            },
            {
              "internalType": "bool",
              "name": "sold",
              "type": "bool"
            }
          ],
          "internalType": "struct PotatoMarket.MarketToken[]",
          "name": "",
          "type": "tuple[]"
        }
      ],
      "stateMutability": "view",
      "type": "function",
      "constant": true
    }
  ],
  "bytecode": "0x6080604052669fdf42f6e4800060045534801561001b57600080fd5b50600160008190555033600360006101000a81548173ffffffffffffffffffffffffffffffffffffffff021916908373ffffffffffffffffffffffffffffffffffffffff1602179055506118e0806100746000396000f3fe6080604052600436106100555760003560e01c80630f08efe01461005a578063128ae7121461008557806312e85585146100b05780636d360339146100db5780637a060f5614610106578063c23b139e14610122575b600080fd5b34801561006657600080fd5b5061006f61013e565b60405161007c9190611368565b60405180910390f35b34801561009157600080fd5b5061009a610407565b6040516100a79190611368565b60405180910390f35b3480156100bc57600080fd5b506100c5610769565b6040516100d29190611399565b60405180910390f35b3480156100e757600080fd5b506100f0610773565b6040516100fd9190611368565b60405180910390f35b610120600480360381019061011b9190611411565b610ad5565b005b61013c60048036038101906101379190611464565b610e38565b005b6060600061014c60016110f0565b9050600061015a60026110f0565b61016460016110f0565b61016e91906114d3565b90506000808267ffffffffffffffff81111561018d5761018c611507565b5b6040519080825280602002602001820160405280156101c657816020015b6101b3611114565b8152602001906001900390816101ab5790505b50905060005b848110156103fc57600073ffffffffffffffffffffffffffffffffffffffff16600560006001846101fd9190611536565b815260200190815260200160002060040160009054906101000a900473ffffffffffffffffffffffffffffffffffffffff1673ffffffffffffffffffffffffffffffffffffffff16036103e95760006001826102599190611536565b90506000600560008381526020019081526020016000209050806040518060e0016040529081600082015481526020016001820160009054906101000a900473ffffffffffffffffffffffffffffffffffffffff1673ffffffffffffffffffffffffffffffffffffffff1673ffffffffffffffffffffffffffffffffffffffff168152602001600282015481526020016003820160009054906101000a900473ffffffffffffffffffffffffffffffffffffffff1673ffffffffffffffffffffffffffffffffffffffff1673ffffffffffffffffffffffffffffffffffffffff1681526020016004820160009054906101000a900473ffffffffffffffffffffffffffffffffffffffff1673ffffffffffffffffffffffffffffffffffffffff1673ffffffffffffffffffffffffffffffffffffffff168152602001600582015481526020016006820160009054906101000a900460ff1615151515815250508486815181106103cc576103cb61158c565b5b60200260200101819052506001856103e49190611536565b945050505b80806103f4906115bb565b9150506101cc565b508094505050505090565b6060600061041560016110f0565b905060008060005b838110156104bd573373ffffffffffffffffffffffffffffffffffffffff166005600060018461044d9190611536565b815260200190815260200160002060040160009054906101000a900473ffffffffffffffffffffffffffffffffffffffff1673ffffffffffffffffffffffffffffffffffffffff16036104aa576001836104a79190611536565b92505b80806104b5906115bb565b91505061041d565b5060008267ffffffffffffffff8111156104da576104d9611507565b5b60405190808252806020026020018201604052801561051357816020015b610500611114565b8152602001906001900390816104f85790505b50905060005b8481101561075e573373ffffffffffffffffffffffffffffffffffffffff16600560006001846105499190611536565b815260200190815260200160002060040160009054906101000a900473ffffffffffffffffffffffffffffffffffffffff1673ffffffffffffffffffffffffffffffffffffffff160361074b576000600560006001846105a99190611536565b81526020019081526020016000206000015490506000600560008381526020019081526020016000209050806040518060e0016040529081600082015481526020016001820160009054906101000a900473ffffffffffffffffffffffffffffffffffffffff1673ffffffffffffffffffffffffffffffffffffffff1673ffffffffffffffffffffffffffffffffffffffff168152602001600282015481526020016003820160009054906101000a900473ffffffffffffffffffffffffffffffffffffffff1673ffffffffffffffffffffffffffffffffffffffff1673ffffffffffffffffffffffffffffffffffffffff1681526020016004820160009054906101000a900473ffffffffffffffffffffffffffffffffffffffff1673ffffffffffffffffffffffffffffffffffffffff1673ffffffffffffffffffffffffffffffffffffffff168152602001600582015481526020016006820160009054906101000a900460ff16151515158152505084868151811061072e5761072d61158c565b5b60200260200101819052506001856107469190611536565b945050505b8080610756906115bb565b915050610519565b508094505050505090565b6000600454905090565b6060600061078160016110f0565b905060008060005b83811015610829573373ffffffffffffffffffffffffffffffffffffffff16600560006001846107b99190611536565b815260200190815260200160002060030160009054906101000a900473ffffffffffffffffffffffffffffffffffffffff1673ffffffffffffffffffffffffffffffffffffffff1603610816576001836108139190611536565b92505b8080610821906115bb565b915050610789565b5060008267ffffffffffffffff81111561084657610845611507565b5b60405190808252806020026020018201604052801561087f57816020015b61086c611114565b8152602001906001900390816108645790505b50905060005b84811015610aca573373ffffffffffffffffffffffffffffffffffffffff16600560006001846108b59190611536565b815260200190815260200160002060030160009054906101000a900473ffffffffffffffffffffffffffffffffffffffff1673ffffffffffffffffffffffffffffffffffffffff1603610ab7576000600560006001846109159190611536565b81526020019081526020016000206000015490506000600560008381526020019081526020016000209050806040518060e0016040529081600082015481526020016001820160009054906101000a900473ffffffffffffffffffffffffffffffffffffffff1673ffffffffffffffffffffffffffffffffffffffff1673ffffffffffffffffffffffffffffffffffffffff168152602001600282015481526020016003820160009054906101000a900473ffffffffffffffffffffffffffffffffffffffff1673ffffffffffffffffffffffffffffffffffffffff1673ffffffffffffffffffffffffffffffffffffffff1681526020016004820160009054906101000a900473ffffffffffffffffffffffffffffffffffffffff1673ffffffffffffffffffffffffffffffffffffffff1673ffffffffffffffffffffffffffffffffffffffff168152602001600582015481526020016006820160009054906101000a900460ff161515151581525050848681518110610a9a57610a9961158c565b5b6020026020010181905250600185610ab29190611536565b945050505b8080610ac2906115bb565b915050610885565b508094505050505090565b600260005403610b1a576040517f08c379a0000000000000000000000000000000000000000000000000000000008152600401610b1190611660565b60405180910390fd5b600260008190555060008111610b65576040517f08c379a0000000000000000000000000000000000000000000000000000000008152600401610b5c906116cc565b60405180910390fd5b6004543414610ba9576040517f08c379a0000000000000000000000000000000000000000000000000000000008152600401610ba09061175e565b60405180910390fd5b610bb360016110fe565b6000610bbf60016110f0565b90506040518060e001604052808281526020018573ffffffffffffffffffffffffffffffffffffffff1681526020018481526020013373ffffffffffffffffffffffffffffffffffffffff168152602001600073ffffffffffffffffffffffffffffffffffffffff16815260200183815260200160001515815250600560008381526020019081526020016000206000820151816000015560208201518160010160006101000a81548173ffffffffffffffffffffffffffffffffffffffff021916908373ffffffffffffffffffffffffffffffffffffffff1602179055506040820151816002015560608201518160030160006101000a81548173ffffffffffffffffffffffffffffffffffffffff021916908373ffffffffffffffffffffffffffffffffffffffff16021790555060808201518160040160006101000a81548173ffffffffffffffffffffffffffffffffffffffff021916908373ffffffffffffffffffffffffffffffffffffffff16021790555060a0820151816005015560c08201518160060160006101000a81548160ff0219169083151502179055509050508373ffffffffffffffffffffffffffffffffffffffff166323b872dd3330866040518463ffffffff1660e01b8152600401610da09392919061178d565b600060405180830381600087803b158015610dba57600080fd5b505af1158015610dce573d6000803e3d6000fd5b50505050828473ffffffffffffffffffffffffffffffffffffffff16827fcd9b0dfebab7db4dbe70606f69fadc8e987e7c80a65410f0bb5ae8bd72dabba7336000876000604051610e2294939291906117d3565b60405180910390a4506001600081905550505050565b600260005403610e7d576040517f08c379a0000000000000000000000000000000000000000000000000000000008152600401610e7490611660565b60405180910390fd5b6002600081905550600060056000838152602001908152602001600020600501549050600060056000848152602001908152602001600020600201549050813414610efd576040517f08c379a0000000000000000000000000000000000000000000000000000000008152600401610ef49061188a565b60405180910390fd5b6005600084815260200190815260200160002060030160009054906101000a900473ffffffffffffffffffffffffffffffffffffffff1673ffffffffffffffffffffffffffffffffffffffff166108fc349081150290604051600060405180830381858888f19350505050158015610f79573d6000803e3d6000fd5b508373ffffffffffffffffffffffffffffffffffffffff166323b872dd3033846040518463ffffffff1660e01b8152600401610fb79392919061178d565b600060405180830381600087803b158015610fd157600080fd5b505af1158015610fe5573d6000803e3d6000fd5b50505050336005600085815260200190815260200160002060040160006101000a81548173ffffffffffffffffffffffffffffffffffffffff021916908373ffffffffffffffffffffffffffffffffffffffff16021790555060016005600085815260200190815260200160002060060160006101000a81548160ff02191690831515021790555061107760026110fe565b600360009054906101000a900473ffffffffffffffffffffffffffffffffffffffff1673ffffffffffffffffffffffffffffffffffffffff166108fc6004549081150290604051600060405180830381858888f193505050501580156110e1573d6000803e3d6000fd5b50505060016000819055505050565b600081600001549050919050565b6001816000016000828254019250508190555050565b6040518060e0016040528060008152602001600073ffffffffffffffffffffffffffffffffffffffff16815260200160008152602001600073ffffffffffffffffffffffffffffffffffffffff168152602001600073ffffffffffffffffffffffffffffffffffffffff168152602001600081526020016000151581525090565b600081519050919050565b600082825260208201905092915050565b6000819050602082019050919050565b6000819050919050565b6111d4816111c1565b82525050565b600073ffffffffffffffffffffffffffffffffffffffff82169050919050565b6000611205826111da565b9050919050565b611215816111fa565b82525050565b6000611226826111da565b9050919050565b6112368161121b565b82525050565b60008115159050919050565b6112518161123c565b82525050565b60e08201600082015161126d60008501826111cb565b506020820151611280602085018261120c565b50604082015161129360408501826111cb565b5060608201516112a6606085018261122d565b5060808201516112b9608085018261122d565b5060a08201516112cc60a08501826111cb565b5060c08201516112df60c0850182611248565b50505050565b60006112f18383611257565b60e08301905092915050565b6000602082019050919050565b600061131582611195565b61131f81856111a0565b935061132a836111b1565b8060005b8381101561135b57815161134288826112e5565b975061134d836112fd565b92505060018101905061132e565b5085935050505092915050565b60006020820190508181036000830152611382818461130a565b905092915050565b611393816111c1565b82525050565b60006020820190506113ae600083018461138a565b92915050565b600080fd5b6113c2816111fa565b81146113cd57600080fd5b50565b6000813590506113df816113b9565b92915050565b6113ee816111c1565b81146113f957600080fd5b50565b60008135905061140b816113e5565b92915050565b60008060006060848603121561142a576114296113b4565b5b6000611438868287016113d0565b9350506020611449868287016113fc565b925050604061145a868287016113fc565b9150509250925092565b6000806040838503121561147b5761147a6113b4565b5b6000611489858286016113d0565b925050602061149a858286016113fc565b9150509250929050565b7f4e487b7100000000000000000000000000000000000000000000000000000000600052601160045260246000fd5b60006114de826111c1565b91506114e9836111c1565b9250828210156114fc576114fb6114a4565b5b828203905092915050565b7f4e487b7100000000000000000000000000000000000000000000000000000000600052604160045260246000fd5b6000611541826111c1565b915061154c836111c1565b9250827fffffffffffffffffffffffffffffffffffffffffffffffffffffffffffffffff03821115611581576115806114a4565b5b828201905092915050565b7f4e487b7100000000000000000000000000000000000000000000000000000000600052603260045260246000fd5b60006115c6826111c1565b91507fffffffffffffffffffffffffffffffffffffffffffffffffffffffffffffffff82036115f8576115f76114a4565b5b600182019050919050565b600082825260208201905092915050565b7f5265656e7472616e637947756172643a207265656e7472616e742063616c6c00600082015250565b600061164a601f83611603565b915061165582611614565b602082019050919050565b600060208201905081810360008301526116798161163d565b9050919050565b7f5072696365206d757374206265206174206c65617374206f6e65207765690000600082015250565b60006116b6601e83611603565b91506116c182611680565b602082019050919050565b600060208201905081810360008301526116e5816116a9565b9050919050565b7f5072696365206d75737420626520657175616c20746f206c697374696e67207060008201527f7269636500000000000000000000000000000000000000000000000000000000602082015250565b6000611748602483611603565b9150611753826116ec565b604082019050919050565b600060208201905081810360008301526117778161173b565b9050919050565b611787816111fa565b82525050565b60006060820190506117a2600083018661177e565b6117af602083018561177e565b6117bc604083018461138a565b949350505050565b6117cd8161123c565b82525050565b60006080820190506117e8600083018761177e565b6117f5602083018661177e565b611802604083018561138a565b61180f60608301846117c4565b95945050505050565b7f506c65617365207375626d6974207468652061736b696e67207072696365206960008201527f6e206f7264657220746f20636f6e74696e756500000000000000000000000000602082015250565b6000611874603383611603565b915061187f82611818565b604082019050919050565b600060208201905081810360008301526118a381611867565b905091905056fea26469706673582212209a30b2a02c634fe92a08f01e904a83ef1ee54408da82dd72cced8b0ffd878bcd64736f6c634300080d0033",
  "immutableReferences": {},
  "source": "// SPDX-License-Identifier: MIT\r\npragma solidity ^0.8.4;\r\n\r\nimport '@openzeppelin/contracts/token/ERC721/ERC721.sol';\r\nimport '@openzeppelin/contracts/security/ReentrancyGuard.sol';\r\nimport '@openzeppelin/contracts/utils/Counters.sol';\r\n\r\n// security against transactions for multiple requests\r\n\r\ncontract PotatoMarket is ReentrancyGuard {\r\n  using Counters for Counters.Counter;\r\n\r\n  /* number of items minting, number of transactions, tokenn that not have been sold\r\n   keep track of token total number - tokenId\r\n   arrays needto knoe the length - help to keep track for arrays */\r\n\r\n  Counters.Counter private _tokenIds;\r\n  Counters.Counter private _tokenSold;\r\n\r\n  // determine who is owner of the contract\r\n  // charge a linting fee so the owner makes a commission\r\n\r\n  address payable owner;\r\n  // we are deploy to matic the API is the same so you can use ether the same way as matic\r\n  // they both have 18 decimal\r\n  // 0.045 is in the cents\r\n  uint256 listingPrice = 0.045 ether;\r\n\r\n  constructor() {\r\n    // set the owner\r\n    owner = payable(msg.sender);\r\n  }\r\n\r\n  // struct can act like objects\r\n\r\n  struct MarketToken {\r\n    uint256 itemId;\r\n    address nftContract;\r\n    uint256 tokenId;\r\n    address payable seller;\r\n    address payable owner;\r\n    uint256 price;\r\n    bool sold;\r\n  }\r\n\r\n  // tokenId return which MarketToken - fetch wich one it is\r\n\r\n  mapping(uint256 => MarketToken) private idToMarketToken;\r\n\r\n  // listen to event from front end application\r\n  event MarketTokenMinted(\r\n    uint256 indexed itemId,\r\n    address indexed nftContract,\r\n    uint256 indexed tokenId,\r\n    address seller,\r\n    address owner,\r\n    uint256 price,\r\n    bool sold\r\n  );\r\n\r\n  // get the listing price\r\n  function getListingPrice() public view returns (uint256) {\r\n    return listingPrice;\r\n  }\r\n\r\n  // two functions to interact with contract\r\n  // 1. create a market item to put it up for sale\r\n  // 2. create a market sale for buying and selling between parties\r\n\r\n  function makeMarketItem(\r\n    address nftContract,\r\n    uint256 tokenId,\r\n    uint256 price\r\n  ) public payable nonReentrant {\r\n    // nonReentrant is a modifier to prevent reentry attact\r\n\r\n    require(price > 0, 'Price must be at least one wei');\r\n    require(msg.value == listingPrice, 'Price must be equal to listing price');\r\n\r\n    _tokenIds.increment();\r\n    uint256 itemId = _tokenIds.current();\r\n\r\n    // putting it up for sale - bool - no owner\r\n    idToMarketToken[itemId] = MarketToken(\r\n      itemId,\r\n      nftContract,\r\n      tokenId,\r\n      payable(msg.sender),\r\n      payable(address(0)),\r\n      price,\r\n      false\r\n    );\r\n\r\n    // NFT transaction\r\n    IERC721(nftContract).transferFrom(msg.sender, address(this), tokenId);\r\n\r\n    emit MarketTokenMinted(itemId, nftContract, tokenId, msg.sender, address(0), price, false);\r\n  }\r\n\r\n  // function to conduct transcation and market sale\r\n\r\n  function createMarketSale(address nftContract, uint256 itemId) public payable nonReentrant {\r\n    uint256 price = idToMarketToken[itemId].price;\r\n    uint256 tokenId = idToMarketToken[itemId].tokenId;\r\n    require(msg.value == price, 'Please submit the asking price in order to continue');\r\n\r\n    // transfer the amount to the seller\r\n    idToMarketToken[itemId].seller.transfer(msg.value);\r\n    // transfer the token from contract address to the buyer\r\n    IERC721(nftContract).transferFrom(address(this), msg.sender, tokenId);\r\n    idToMarketToken[itemId].owner = payable(msg.sender);\r\n    idToMarketToken[itemId].sold = true;\r\n    _tokenSold.increment();\r\n\r\n    payable(owner).transfer(listingPrice);\r\n  }\r\n\r\n  // function to fetchMarketItem - minting, buying and selling\r\n  // return the number of unsold items\r\n\r\n  function fetchMarketItems() public view returns (MarketToken[] memory) {\r\n    uint256 itemCount = _tokenIds.current();\r\n    uint256 unsoldItemCount = _tokenIds.current() - _tokenSold.current();\r\n    uint256 currentIndex = 0;\r\n\r\n    // looping over the number of  items created\r\n    MarketToken[] memory items = new MarketToken[](unsoldItemCount);\r\n    for (uint256 i = 0; i < itemCount; i++) {\r\n      if (idToMarketToken[i + 1].owner == address(0)) {\r\n        uint256 currentId = i + 1;\r\n        MarketToken storage currentItem = idToMarketToken[currentId];\r\n        items[currentIndex] = currentItem;\r\n        currentIndex += 1;\r\n      }\r\n    }\r\n    return items;\r\n  }\r\n\r\n  // return nfts that the user has purchased\r\n\r\n  function fetchMyNfts() public view returns (MarketToken[] memory) {\r\n    uint256 totalItemCount = _tokenIds.current();\r\n    // a second counter for each individual user\r\n    uint256 itemCount = 0;\r\n    uint256 currentIndex = 0;\r\n\r\n    for (uint256 i = 0; i < totalItemCount; i++) {\r\n      if (idToMarketToken[i + 1].owner == msg.sender) {\r\n        itemCount += 1;\r\n      }\r\n    }\r\n\r\n    // second loop to loop through the amount you  have purchased with itemCount\r\n    // check to see if the owner address is equal to msg.sender\r\n\r\n    MarketToken[] memory items = new MarketToken[](itemCount);\r\n    for (uint256 i = 0; i < totalItemCount; i++) {\r\n      if (idToMarketToken[i + 1].owner == msg.sender) {\r\n        uint256 currentId = idToMarketToken[i + 1].itemId;\r\n        // current array\r\n        MarketToken storage currentItem = idToMarketToken[currentId];\r\n        items[currentIndex] = currentItem;\r\n        currentIndex += 1;\r\n      }\r\n    }\r\n    return items;\r\n  }\r\n\r\n  // function for returning an array of minted nfts\r\n  function fetchItemCreated() public view returns (MarketToken[] memory) {\r\n    // instead of .owner it will be the .seller\r\n    uint256 totalItemCount = _tokenIds.current();\r\n    uint256 itemCount = 0;\r\n    uint256 currentIndex = 0;\r\n\r\n    for (uint256 i = 0; i < totalItemCount; i++) {\r\n      if (idToMarketToken[i + 1].seller == msg.sender) {\r\n        itemCount += 1;\r\n      }\r\n    }\r\n\r\n    // second loop to loop through the amount you  have purchased with itemCount\r\n    // check to see if the owner address is equal to msg.sender\r\n\r\n    MarketToken[] memory items = new MarketToken[](itemCount);\r\n    for (uint256 i = 0; i < totalItemCount; i++) {\r\n      if (idToMarketToken[i + 1].seller == msg.sender) {\r\n        uint256 currentId = idToMarketToken[i + 1].itemId;\r\n\r\n        MarketToken storage currentItem = idToMarketToken[currentId];\r\n        items[currentIndex] = currentItem;\r\n        currentIndex += 1;\r\n      }\r\n    }\r\n    return items;\r\n  }\r\n}\r\n",
  "sourcePath": "D:\\PROJECT\\pet-shop-react\\contracts\\PotatoMarket.sol",
  "compiler": {
    "name": "solc",
    "version": "0.8.13+commit.abaa5c0e.Emscripten.clang"
  },
  "schemaVersion": "3.4.7",
  "updatedAt": "2022-05-11T13:12:20.866Z",
  "networkType": "ethereum",
  "devdoc": {
    "kind": "dev",
    "methods": {},
    "version": 1
  },
  "userdoc": {
    "kind": "user",
    "methods": {},
    "version": 1
  }
}